:100000000C942A000C9447000C9447000C94470071
:100010000C9447000C9447000C9447000C94470044
:100020000C9447000C94E0000C9447000C9447009B
:100030000C9447000C9447000C94B0000C944700BB
:100040000C9447000C9447000C9447000C94470014
:100050000C94470011241FBECFE5D4E0DEBFCDBF16
:1000600010E0A0E6B0E0EAEFF1E002C005900D92EA
:10007000AC36B107D9F720E0ACE6B0E001C01D9284
:10008000A137B207E1F70E9494000C94FB000C9496
:1000900000001ABA1BBA8FE787BB81E888BB8FEFD5
:1000A00084BB8CEF85BB82E081BB82BB089585E079
:1000B00083BF89B7816089BF08958CE08EBD8FE9C9
:1000C0009CE89BBD8ABD99BD88BD08958DE189B925
:1000D00010BC86E880BD88E08AB9089580EE87B9B3
:1000E00080EA80BF8EEA86B9089580916F008F5FA5
:1000F000883019F080936F0002C010926F0087B1B2
:10010000807E87B997B180916F00892B87B9E09184
:100110006F00F0E0EF59FF4F808185BB81E0809355
:100120006E000E94570008950E9449000E945D00E1
:100130000E9466000E946E00789480916E0081306B
:1001400019F0B79B0E947500809160008130A9F77B
:100150005D9BF3CF809170008CB910926000EDCF61
:100160001F920F920FB60F9211242F933F934F932C
:100170005F936F937F938F939F93AF93BF93EF930F
:10018000FF9384B18093700085B188E088BF81E0DF
:100190008093600082E080936C000E947500FF9164
:1001A000EF91BF91AF919F918F917F916F915F91EF
:1001B0004F913F912F910F900FBE0F901F90189568
:1001C0001F920F920FB60F9211248F9380916D00A2
:1001D0008F5F80936D00833241F410926E0013BEE6
:1001E00089B78E7F89BF10926D008F910F900FBEDF
:0A01F0000F901F901895F894FFCFB0
:0C01FA0001FC60DAF266B6BEE0FEF60022
:00000001FF
