S010000070726F6A656374332E73726563EA
S11300000C942A000C943C000C943C000C943C008E
S11300100C943C000C943C000C943C000C943C006C
S11300200C943C000C943C000C943C000C943C005C
S11300300C943C000C943C000C943C000C943C004C
S11300400C943C000C943C000C943C000C943C003C
S11300500C943C0011241FBECFE5D4E0DEBFCDBF1D
S113006020E0A0E6B0E001C01D92AC36B207E1F793
S11300700E9444000C947F000C9400008DE189B927
S113008010BC86E880BD08950E943E00549A53989F
S11300905F9B15C054989CB190936300809160005D
S11300A0E82FF0E0EC59FF4F90838F5F87708093C7
S11300B06000809162008F5F80936200549A9091F7
S11300C0620080916100981719F35D9BE1CF549809
S11300D0539AE0916000E150E770E0936000F0E033
S11300E0EC59FF4F8081809363008CB9809161004B
S11300F08F5F809361008BB15398549AC9CFF89461
S1050100FFCF2B
S9030000FC
