:100000000C942A000C9496000C94B7000C944700B2
:100010000C9447000C9447000C9447000C94470044
:100020000C9447000C94DB000C9447000C944700A0
:100030000C9447000C9447000C9447000C94470024
:100040000C9447000C9447000C9447000C94470014
:100050000C94470011241FBECFE5D4E0DEBFCDBF16
:1000600010E0A0E6B0E0E8E6F2E002C005900D92F4
:10007000A236B107D9F720E0A2E6B0E001C01D9298
:10008000AA36B207E1F70E9473000C9432010C9477
:1000900000008FEF8ABB91E09BBB9FEC97BB92E384
:1000A00098BB84BB8CEF85BB83EF81BB8CE082BBAC
:1000B000089583E083BF89B7816089BF08958BE38A
:1000C0008FBD8CE08EBD8CE990E09BBD8ABD84E144
:1000D00090E099BD88BD089585B7856085BF8BB7D1
:1000E000806C8BBF08950E9449000E9459000E94B5
:1000F0005F000E946C007894809165008111FECFB2
:10010000B49909C080916000843121F0845190E05D
:1001100099BD88BDFFCFB599F1CF809160008A3F2E
:1001200021F08C5E90E099BD88BDFFCF1F920F92A9
:100130000FB60F9211248F9382990AC080916200AA
:10014000811104C081E08093620002C010926200BD
:100150008BB78F7B8BBF81E0809364008AE08093B4
:1001600068008F910F900FBE0F901F9018951F92EF
:100170000F920FB60F9211248F9383990DC0809127
:100180006100803231F41092690082E08093610056
:1001900003C0880F809361008BB78F778BBF81E09E
:1001A000809363008AE0809367008F910F900FBE69
:1001B0000F901F9018951F920F920FB60F92112457
:1001C0008F939F93809169008F5F809369009091D6
:1001D000610089130FC0109269008BB39091620087
:1001E000913021F4880F29F481E003C0869509F449
:1001F00080E88BBB80916400813071F4809168004D
:10020000815080936800811107C01092640080E4DF
:100210008ABF8BB780648BBF80916300813071F49B
:1002200080916700815080936700811107C0109210
:10023000630080E88ABF8BB780688BBF80916500C0
:10024000813049F48091660081508093660081116D
:1002500002C0109265009F918F910F900FBE0F907A
:080260001F901895F894FFCFE0
:0202680014027E
:00000001FF
