:100000000C942A000C9447000C9447000C94470071
:100010000C9447000C9447000C94BC010C944700CE
:100020000C9447000C94D4010C9447000C943A01B2
:100030000C9483010C9494010C9447000C94470099
:100040000C9447000C9447000C9447000C94470014
:100050000C94470011241FBECFE5D4E0DEBFCDBF16
:1000600010E0A0E6B0E0E2EEF3E002C005900D92F1
:10007000A437B107D9F720E0A4E7B0E001C01D9292
:10008000AC38B207E1F70E9403010C94EF010C9425
:1000900000001ABA8FEF8BBB9FE997BB98E698BB1D
:1000A00084BB8CEF85BB82E081BB82BB089585E079
:1000B00083BF89B7816089BF089588E08EBD80E0E5
:1000C00098ED9BBD8ABD08958DE189B910BC86E885
:1000D00080BD80E98AB9089580916100815019F04E
:1000E0008093610008958FEF80936100809160009C
:1000F0008150809360008F3F21F483E08093600003
:1001000007C0813099F0E0F0823061F0833009F56A
:10011000E0918400F0E0EE59FF4F808185BBC098EC
:10012000C39A089515BAC398C29A0895E0918300BE
:10013000F0E0EE59FF4F808185BBC298C19A0895C7
:10014000E0918200F0E0EE59FF4F808185BBC198BD
:10015000C09A0895E4E7F0E0A8E8B0E08C918083CD
:1001600011968C911197818312968C9112978283AC
:1001700013968C9183830895809184008F5F8430DF
:1001800019F08093840002C010928400E0918400F2
:10019000F0E0EC58FF4F8081982F9F709093820081
:1001A00082958F708093830081E080937A000E9413
:1001B00057000895809180008F5F8093800090E8C1
:1001C000909385008823BCF410928000E5E8F0E06D
:1001D000118289B386958383E5E8F0E090917B00F6
:1001E0008081890F9181890F80937B0092E09093A9
:1001F0007F0082830895E5E8F0E0818399B39695C6
:1002000089278383E9CF0E9449000E945D000E94F4
:10021000640078940E946C0080917900813009F527
:1002200010927900C79A0E94AA0009C00E946C002F
:1002300080917A00811103C0B69B0E94BC00B599E1
:10024000F5CF0E94DA008AB18F768AB98AB18862C6
:100250008AB9809178008823E1F310927800C798DA
:10026000D9CF80917A008111D5CFB699D3CF0E9492
:10027000BC00D0CF1F920F920FB60F9211242F9374
:100280003F938F939F93EF93FF939CB18BB18C71AE
:1002900079F580917E00E82FF0E0E857FF4F9083DA
:1002A000811106C0903821F581E080937E0020C046
:1002B00090918800903819F48F5F80937E00809130
:1002C0007E008430A9F4E8E8F0E021E030E093819A
:1002D0008181981711F020E030E080918A0090E051
:1002E0002817390719F081E08093790010927E0079
:1002F000FF91EF919F918F913F912F910F900FBEA2
:100300000F901F9018951F920F920FB60F92112405
:100310008F935598569A809185008CB98F910F9044
:100320000FBE0F901F9018951F920F920FB60F924D
:1003300011248F93EF93FF93E0917D00EF5FE093A3
:100340007D00E33061F410927D008AB1877B8AB929
:100350008AB180698AB981E08093780005C0F0E0B5
:10036000EB57FF4F80818CB9FF91EF918F910F90E8
:100370000FBE0F901F9018951F920F920FB60F92FD
:1003800011248F9389B78F7E89BF8EB58E7F8EBDE6
:100390001DBC1CBC10927E0010927C008F910F90AF
:1003A0000FBE0F901F9018951F920F920FB60F92CD
:1003B00011248F93809181008F5F8093810083321D
:1003C00041F410927A0013BE89B78E7F89BF1092D4
:1003D00081008F910F900FBE0F901F901895F89489
:0203E000FFCF4D
:1003E20003FFFC60DAF266B6BEE0FEF6EE3E9C7AF1
:0403F2009E8E0000DB
:00000001FF
