:100000000C942A000C9447000C941B010C9447009C
:100010000C9447000C9447000C9447000C94470044
:100020000C9447000C9447000C9447000C94470034
:100030000C9447000C9447000C9447000C94470024
:100040000C9447000C9447000C9447000C943F011B
:100050000C94470011241FBECFE5D4E0DEBFCDBF16
:1000600010E0A0E6B0E0E6E3F3E002C005900D92F8
:10007000A037B107D9F720E0A0E7B0E001C01D929A
:10008000A737B207E1F70E94B8000C9499010C94CD
:1000900000008FEF8ABB90E89BBB9FEC97BB92E37D
:1000A00098BB84BB8CEF85BB83EF81BB8CE082BBAC
:1000B00008958DE083BF89B7826089BF8DE48CBFCE
:1000C000089581E28FBD8AE08EBD8AE090E099BDFF
:1000D00088BD089585B7856085BF8BB780688BBF65
:1000E0000895FB0194E6899F90011124A1E8B0E8EE
:1000F0000E948A01880F892F881F990B91959DEC8A
:10010000899F912D1124969596959695392F330FA9
:10011000232F220F220F230F821BDA018C9390834F
:10012000089580916200815019F0809362000895D3
:100130008FEF8093620080917200882361F0E091DC
:100140007400F0E0EB59FF4F808185BBC098C19AE5
:10015000109272000895E0917300F0E0EB59FF4FA8
:10016000808185BBC198C09A81E080937200089518
:100170000E9449000E9459000E9461000E946A008A
:1001800043E750E064E770E0809161000E947100F5
:100190007894DEE1C1E00E949100809171008111AC
:1001A000FACFB49923C0809161008A3071F08A50EF
:1001B0008093610090E099BD88BD43E750E064E71B
:1001C00070E0809161000E947100D0937500C0932F
:1001D00071000E949100809171008111FACFB49B4F
:1001E000F8CFD0937500C0937100D5CFB599D3CF18
:1001F000809161008A3F71F0865F8093610090E09A
:1002000099BD88BD43E750E064E770E080916100EC
:100210000E947100D0937500C09371000E949100FC
:10022000809171008111FACFB59BF8CFD093750002
:10023000C0937100B0CF1F920F920FB60F9211248E
:100240008F9383990DC080916400803231F41092B5
:10025000630082E08093640003C0880F8093640091
:100260008BB78F778BBF81E0809370008EE1809396
:1002700076008F910F900FBE0F901F9018951F92D0
:100280000F920FB60F9211248F939F93809163006A
:100290008F5F8093630090916400891315C0109262
:1002A00063008BB390916000911107C0880F59F4DF
:1002B00081E08093600080E806C0869580588F3F7B
:1002C00011F4109260008BBB80917000813071F44A
:1002D00080917600815080937600811107C0109242
:1002E000700080E88ABF8BB780688BBF80917100F7
:1002F000813049F48091750081508093750081119F
:1003000002C0109271009F918F910F900FBE0F90BD
:100310001F901895A29FB001B39FC001A39F700DBD
:10032000811D1124911DB29F700D811D1124911DFD
:060330000895F894FFCFD0
:10033600010AFF0202FC60DAF266B6BEE0FEF600D3
:00000001FF
