:100000000C942A000C941B010C943C010C944700A6
:100010000C9447000C9447000C9447000C94470044
:100020000C9447000C9447000C9447000C94470034
:100030000C9447000C9447000C9447000C94470024
:100040000C9447000C9447000C9447000C946001FA
:100050000C94470011241FBECFE5D4E0DEBFCDBF16
:1000600010E0A0E6B0E0E0E9F3E002C005900D92F8
:10007000AE36B107D9F720E0AEE6B0E001C01D9280
:10008000A937B207E1F70E94B8000C94C6010C949E
:1000900000008FEF8ABB91E09BBB9FEC97BB92E384
:1000A00098BB84BB8CEF85BB83EF81BB8CE082BBAC
:1000B00008958DE083BF89B7826089BF8DE48CBFCE
:1000C000089581E28FBD8AE08EBD8AE090E099BDFF
:1000D00088BD089585B7856085BF8BB7806C8BBF61
:1000E0000895FB0194E6899F90011124A1E8B0E8EE
:1000F0000E94B701880F892F881F990B91959DEC5D
:10010000899F912D1124969596959695392F330FA9
:10011000232F220F220F230F821BDA018C9390834F
:10012000089580916100815019F0809361000895D5
:100130008FEF8093610080917200882361F0E091DD
:100140007400F0E0ED59FF4F808185BBC098C19AE3
:10015000109272000895E0917300F0E0ED59FF4FA6
:10016000808185BBC198C09A81E080937200089518
:100170000E9449000E9459000E9461000E946A008A
:1001800043E750E064E770E0809160000E947100F6
:100190007894DEE1C1E00E949100809171008111AC
:1001A000FACFB49923C0809160008A3071F08A50F0
:1001B0008093600090E099BD88BD43E750E064E71C
:1001C00070E0809160000E947100D0937500C09330
:1001D00071000E949100809171008111FACFB49B4F
:1001E000F8CFD0937500C0937100D5CFB599D3CF18
:1001F000809160008A3F71F0865F8093600090E09C
:1002000099BD88BD43E750E064E770E080916000ED
:100210000E947100D0937500C09371000E949100FC
:10022000809171008111FACFB59BF8CFD093750002
:10023000C0937100B0CF1F920F920FB60F9211248E
:100240008F9382990AC080916E00811104C081E071
:1002500080936E0002C010926E008BB78F7B8BBFB5
:1002600081E0809370008EE1809377008F910F90F2
:100270000FBE0F901F9018951F920F920FB60F92FE
:1002800011248F9383990DC080916200803231F4E4
:100290001092780082E08093620003C0880F809300
:1002A00062008BB78F778BBF81E080936F008EE108
:1002B000809376008F910F900FBE0F901F9018952E
:1002C0001F920F920FB60F9211248F939F938091DC
:1002D00078008F5F809378009091620089130FC03F
:1002E000109278008BB390916E00913021F4880FBA
:1002F00029F481E003C0869509F480E88BBB8091E6
:100300007000813071F48091770081508093770084
:10031000811107C01092700080E48ABF8BB780649F
:100320008BBF80916F00813071F480917600815095
:1003300080937600811107C010926F0080E88ABF19
:100340008BB780688BBF80917100813049F48091B8
:100350007500815080937500811102C01092710068
:100360009F918F910F900FBE0F901F901895A29F95
:10037000B001B39FC001A39F700D811D1124911D79
:10038000B29F700D811D1124911D0895F894FFCF27
:0E0390000AFF02FC60DAF266B6BEE0FEF6007E
:00000001FF
