:020000020000FC
:0200000028C016
:0200040018954D
:02000800189549
:02000C00189545
:02001000189541
:0200140018953D
:02001800189539
:02001C00189535
:02002000189531
:0200240018952D
:02002800189529
:02002C00189525
:02003000189521
:0200340018951D
:02003800189519
:02003C00189515
:02004000189511
:0200440018950D
:02004800189509
:02004C00189505
:1000500018950FE50DBF04E00EBF0FEC07BB01E3E1
:1000600008BB0FEF04BB0CEF05BB1CD01127B499E4
:1000700002C0139503C0B599FACF1A95103109F44F
:1000800010E01F3F09F41FE0E4EBF0E00027E10F70
:10009000F01F049105BB06D0B49BFECFB59BFECFED
:1000A00001D0E5CF20E838E341E021503040404026
:1000B000E0F70895FC60DAF266B6BEE0FEF6EE3ECA
:0400C0009C7A9E8EFA
:00000001FF
