:100000000C942A000C9447000C9447000C94470071
:100010000C9447000C9447000C9447000C94470044
:100020000C9447000C94C4000C9447000C944700B7
:100030000C9447000C9447000C94B0000C944700BB
:100040000C9447000C9447000C9447000C94470014
:100050000C94470011241FBECFE5D4E0DEBFCDBF16
:1000600010E0A0E6B0E0E2ECF1E002C005900D92F5
:10007000AC36B107D9F720E0ACE6B0E001C01D9284
:10008000A037B207E1F70E9494000C94DF000C94B3
:1000900000001ABA1BBA8FE787BB81E888BB8FEFD5
:1000A00084BB8CEF85BB82E081BB82BB089585E079
:1000B00083BF89B7816089BF08958CE08EBD8FE9C9
:1000C0009CE89BBD8ABD99BD88BD08958DE189B925
:1000D00010BC86E880BD88E08AB9089580EE87B9B3
:1000E00080EA80BF8EEA86B9089580916E008F5FA6
:1000F000883019F080936E0002C010926E0087B1B4
:10010000807E87B997B180916E00892B87B9E09185
:100110006E00F0E0EF59FF4F808185BB81E0809356
:100120006D000E94570008950E9449000E945D00E2
:100130000E9466000E946E00789480916D0081306C
:1001400019F0B79B0E947500809160008130A9F77B
:100150005D9BF3CF80916F008CB910926000EDCF62
:100160001F920F920FB60F9211248F9385B1809337
:100170006F0088E088BF81E0809360008F910F90CE
:100180000FBE0F901F9018951F920F920FB60F92EF
:1001900011248F9380916C008F5F80936C00833269
:1001A00041F410926D0013BE89B78E7F89BF109203
:1001B0006C008F910F900FBE0F901F901895F894C0
:0201C000FFCF6F
:0C01C20001FC60DAF266B6BEE0FEF6005A
:00000001FF
