S010000070726F6A656374302E73726563ED
S11300000C942A000C9447000C9447000C9447006D
S11300100C9447000C9447000C94A4010C944700E2
S11300200C9447000C94BC010C9447000C942201DE
S11300300C946B010C947C010C9447000C944700C5
S11300400C9447000C9447000C9447000C94470010
S11300500C94470011241FBECFE5D4E0DEBFCDBF12
S113006010E0A0E6B0E0E2EBF3E002C005900D92F0
S1130070A437B107D9F720E0A4E7B0E001C01D928E
S1130080AB38B207E1F70E94EB000C94D7010C9453
S113009000001ABA8FEF8BBB9FE997BB98E698BB19
S11300A084BB8CEF85BB82E081BB82BB089585E075
S11300B083BF89B7816089BF089588E08EBD80E0E1
S11300C098ED9BBD8ABD08958DE189B910BC86E881
S11300D080BD80E98AB9089580916100815019F04A
S11300E08093610008958FEF809361008091600098
S11300F08150809360008F3F21F483E080936000FF
S113010007C0813099F0E0F0823061F0833009F566
S1130110E0918300F0E0EE59FF4F808185BBC098E9
S1130120C39A089515BAC398C29A0895E0918200BB
S1130130F0E0EE59FF4F808185BBC298C19A0895C3
S1130140E0918100F0E0EE59FF4F808185BBC198BA
S1130150C09A0895E4E7F0E0A7E8B0E08C918083CA
S113016011968C911197818312968C9112978283A8
S113017013968C9183830895809183008F5F8430DC
S113018019F08093830002C010928300E0918300F1
S1130190F0E0EC58FF4F8081982F9F70909381007E
S11301A082958F708093820081E080937A000E9410
S11301B05700089510927B0080917F008F5F809399
S11301C07F00E4E8F0E0808399B39183890F809302
S11301D07B00828308950E9449000E945D000E9472
S11301E0640078940E946C0080917900813009F554
S11301F010927900C79A0E94AA0009C00E946C005C
S113020080917A00811103C0B69B0E94BC00B5990D
S1130210F5CF0E94DA008AB18F768AB98AB18862F2
S11302208AB9809178008823E1F310927800C79806
S1130230D9CF80917A008111D5CFB699D3CF0E94BE
S1130240BC00D0CF1F920F920FB60F9211248F9340
S11302509F93EF93FF939CB18BB18C7199F580912F
S11302607E00E82FF0E0E957FF4F90838F5F809383
S11302707E00813061F480917C00980F90937C0023
S113028089B7806189BF8EB581608EBD1BC0843003
S1130290A1F480917C00981303C081E080937900DD
S11302A089B78F7E89BF8EB58E7F8EBD1DBC1CBC69
S11302B010927E0010927C0005C080917C00980F03
S11302C090937C00FF91EF919F918F910F900FBEBF
S11302D00F901F9018951F920F920FB60F92112432
S11302E08F935598569A809184008CB98F910F9072
S11302F00FBE0F901F9018951F920F920FB60F927A
S113030011248F93EF93FF93E0917D00EF5FE093CF
S11303107D00E33061F410927D008AB1877B8AB955
S11303208AB180698AB981E08093780005C0F0E0E1
S1130330EC57FF4F80818CB9FF91EF918F910F9013
S11303400FBE0F901F9018951F920F920FB60F9229
S113035011248F9389B78F7E89BF8EB58E7F8EBD12
S11303601DBC1CBC10927E0010927C008F910F90DB
S11303700FBE0F901F9018951F920F920FB60F92F9
S113038011248F93809180008F5F8093800083324B
S113039041F410927A0013BE89B78E7F89BF109200
S11303A080008F910F900FBE0F901F901895F894B6
S10503B0FFCF79
S11303B203FFFC60DAF266B6BEE0FEF6EE3E9C7A1D
S10703C29E8E000007
S9030000FC
